:020000040000FA
:200000000000000000000000000000000000000000000000000000000000000000000000E0
:200020000000000000000000000000000000000000000000000000000000000000000000C0
:200040000000000000000000000000000000000000000000000000000000000000000000A0
:20006000000000000000000000000000000000000000000000000000000000000000000080
:201C000000000000000000000000000000000000000000000000000000000000912600000D
:201C20000000000000000000000000000000000000000000000000000000000000000000A4
:201C4000000000000000000000000000000000000000000000000000000000000000000084
:201C6000000000000000000000000000000000000000000000000000000000000000000064
:201C8000000000000000000000000000000000000000000000000000000000000000000044
:201CA000000000000000000000000000000000000000000000000000000000000000000024
:201CC000000000000000000000000000000000000000000000000000000000000000000004
:201CE00000002691000000000000000000000000000000000000000000000000000000002D
:201D000000000000000000000000000000000000000000000000000000000000260000009D
:201D20000000000000000000000000000000000000000000000000000000000000000000A3
:201D4000000000000000000000000000000000000000000000000000000000000000000083
:201D6000000000000000000000000000000000000000000000000000000000000000000063
:201D8000000000000000000000000000000000000000000000000000000000000000000043
:201DA000000000000000000000000000000000000000000000000000000000000000000023
:201DC000000000000000000000000000000000000000000000000000000000000000000003
:201DE0000000002600000000000000000000000000000000000000000000000000000000BD
:201E00000000000000000000000000000000000000000000000000000000000000000000C2
:201E20000000000000000000000000000000000000000000000000000000000000000000A2
:201E4000000000000000000000000000000000000000000000000000000000000000000082
:201E6000000000000000000000000000000000000000000000000000000000000000000062
:2038A00000000000000000000000000000000000000000000B304446464A452D0000000041
:2038C0000000000000000000000000000000000000000000000000000000000000000000E8
:2038E0000000000000000000000000000000000000000000000000000000000000000000C8
:203900000000000000000000000000000000000000000000000000000000000000000000A7
:20392000000000000000000000000000000000000000000000000000000000000000000087
:20394000000000000000000000000000000000000000000000000000000000000000000067
:20396000000000000000000000000000000000000000000000000000000000000000000047
:20398000000000000000000000000000000000000000000000000000000000000000000027
:2039A000000000000000000000000000000000000000427A92947F433361909B9469220085
:2039C0000000000000000000000000000000000000000000000000000000000000000000E7
:2039E0000000000000000000000000000000000000000000000000000000000000000000C7
:203A00000000000000000000000000000000000000000000000000000000000000000000A6
:203A2000000000000000000000000000000000000000000000000000000000000000000086
:203A4000000000000000000000000000000000000000000000000000000000000000000066
:203A6000000000000000000000000000000000000000000000000000000000000000000046
:203A8000000000000000000000000000000000000000000000000000000000000000000026
:203AA000000000000000000000000000000000002D7D8D5E3D323331313233344B7690661D
:203AC0000900000000000000000000000000000000000000000000000000000000000000DD
:203AE0000000000000000000000000000000000000000000000000000000000000000000C6
:203B00000000000000000000000000000000000000000000000000000000000000000000A5
:203B2000000000000000000000000000000000000000000000000000000000000000000085
:203B4000000000000000000000000000000000000000000000000000000000000000000065
:203B6000000000000000000000000000000000000000000000000000000000000000000045
:203B8000000000000000000000000000000000000000000000000000000000000000000025
:203BA0000000000000000000000000000000004C7E543433313131313131313132333C76E1
:203BC000842E00000000000000000000000000000000000000000000000000000000000033
:203BE0000000000000000000000000000000000000000000000000000000000000000000C5
:203C00000000000000000000000000000000000000000000000000000000000000000000A4
:203C2000000000000000000000000000000000000000000000000000000000000000000084
:203C4000000000000000000000000000000000000000000000000000000000000000000064
:203C6000000000000000000000000000000000000000000000000000000000000000000044
:203C8000000000000000000000000000000000000000000000000000000000000000000024
:203CA00000000000000000000000000000005A6C3732313131313131313131313131313325
:203CC0004F833D0000000000000000000000000000000000000000000000000000000000D5
:203CE0000000000000000000000000000000000000000000000000000000000000000000C4
:203D00000000000000000000000000000000000000000000000000000000000000000000A3
:203D2000000000000000000000000000000000000000000000000000000000000000000083
:203D4000000000000000000000000000000000000000000000000000000000000000000063
:203D6000000000000000000000000000000000000000000000000000000000000000000043
:203D8000000000000000000000000000000000000000000000000000000000000000000023
:203DA0000000000000000000000000000057693531313131313131313131313131313131FE
:203DC0003340833E00000000000000000000000000000000000000000000000000000000AF
:203DE0000000000000000000000000000000000000000000000000000000000000000000C3
:203E00000000000000000000000000000000000000000000000000000000000000000000A2
:203E2000000000000000000000000000000000000000000000000000000000000000000082
:203E4000000000000000000000000000000000000000000000000000000000000000000062
:203E6000000000000000000000000000000000000000000000000000000000000000000042
:203E8000000000000000000000000000000000000000000000000000000000000000000022
:203EA0000000000000000000000000004069393131313131313131313131313131313131DF
:203EC000313241892F00000000000000000000000000000000000000000000000000000086
:203EE0000000000000000000000000000000000000000000000000000000000000000000C2
:203F00000000000000000000000000000000000000000000000000000000000000000000A1
:203F2000000000000000000000000000000000000000000000000000000000000000000081
:203F4000000000000000000000000000000000000000000000000000000000000000000061
:203F6000000000000000000000000000000000000000000000000000000000000000000041
:203F8000000000000000000000000000000000000000000000000000000000000000000021
:203FA00000000000000000000000000C6A3E313131313131313131313131313131313131DB
:203FC000313133518B0500000000000000000000000000000000000000000000000000006B
:203FE0000000000000000000000000000000000000000000000000000000000000000000C1
:204000000000000000000000000000000000000000000000000000000000000000000000A0
:20402000000000000000000000000000000000000000000000000000000000000000000080
:20404000000000000000000000000000000000000000000000000000000000000000000060
:20406000000000000000000000000000000000000000000000000000000000000000000040
:20408000000000000000000000000000000000000000000000000000000000000000000020
:2040A0000000000000000000000000594E32313131313131313131313131313131313131B5
:2040C000313131338366000000000000000000000000000000000000000000000000000031
:2040E0000000000000000000000000000000000000000000000000000000000000000000C0
:2041000000000000000000000000000000000000000000000000000000000000000000009F
:2041200000000000000000000000000000000000000000000000000000000000000000007F
:2041400000000000000000000000000000000000000000000000000000000000000000005F
:2041600000000000000000000000000000000000000000000000000000000000000000003F
:2041800000000000000000000000000000000000000000000000000000000000000000001F
:2041A0000000000000000000000003603B31313131313131313131313131313131313131BE
:2041C000313131323F9C0E0000000000000000000000000000000000000000000000000031
:2041E0000000000000000000000000000000000000000000000000000000000000000000BF
:2042000000000000000000000000000000000000000000000000000000000000000000009E
:2042200000000000000000000000000000000000000000000000000000000000000000007E
:2042400000000000000000000000000000000000000000000000000000000000000000005E
:2042600000000000000000000000000000000000000000000000000000000000000000003E
:2042800000000000000000000000000000000000000000000000000000000000000000001E
:2042A00000000000000000000000394E3131313131313131313131313131313131313131A3
:2042C00031313131338F540000000000000000000000000000000000000000000000000004
:2042E0000000000000000000000000000000000000000000000000000000000000000000BE
:2043000000000000000000000000000000000000000000000000000000000000000000009D
:2043200000000000000000000000000000000000000000000000000000000000000000007D
:2043400000000000000000000000000000000000000000000000000000000000000000005D
:2043600000000000000000000000000000000000000000000000000000000000000000003D
:2043800000000000000000000000000000000000000000000000000000000000000000001D
:2043A000000000000000000000005140313131313131313131313131313131313131313198
:2043C0003131313132568B0000000000000000000000000000000000000000000000000006
:2043E0000000000000000000000000000000000000000000000000000000000000000000BD
:2044000000000000000000000000000000000000000000000000000000000000000000009C
:2044200000000000000000000000000000000000000000000000000000000000000000007C
:2044400000000000000000000000000000000000000000000000000000000000000000005C
:2044600000000000000000000000000000000000000000000000000000000000000000003C
:2044800000000000000000000000000000000000000000000000000000000000000000001C
:2044A00000000000000000000000563B313131313131313131313131313131313131313197
:2044C00031313131313CA70C000000000000000000000000000000000000000000000000F8
:2044E0000000000000000000000000000000000000000000000000000000000000000000BC
:2045000000000000000000000000000000000000000000000000000000000000000000009B
:2045200000000000000000000000000000000000000000000000000000000000000000007B
:2045400000000000000000000000000000000000000000000000000000000000000000005B
:2045600000000000000000000000000000000000000000000000000000000000000000003B
:2045800000000000000000000000000000000000000000000000000000000000000000001B
:2045A0000000000000000000000F563731313131313131313131313131313131313131318B
:2045C000313131313132B032000000000000000000000000000000000000000000000000D2
:2045E0000000000000000000000000000000000000000000000000000000000000000000BB
:2046000000000000000000000000000000000000000000000000000000000000000000009A
:2046200000000000000000000000000000000000000000000000000000000000000000007A
:2046400000000000000000000000000000000000000000000000000000000000000000005A
:2046600000000000000000000000000000000000000000000000000013364B575B5C5B5BE2
:204680005B5C5A564B35130000000000000000000000000000000000000000000000000020
:2046A0000000000000000000002D583431313131313131313131313131313131313131316D
:2046C000313131313133AC46000000000000000000000000000000000000000000000000C0
:2046E0000000000000000000000000000000000000000000000000000000000000000000BA
:20470000000000000000000000000000000000000000000000000000000000000000000099
:20472000000000000000000000000000000000000000000000000000000000000000000079
:20474000000000000000000000000000000000000000000000000000000000000000000059
:204760000000000000000000000000000000000000000D365064778E9FAAA99D958E8A8879
:20478000888B929BA4A59C8A75634F361200000000000000000000000000000000000000FB
:2047A000000000000000000000375734313131313131313131313131313131313131313163
:2047C000313131313133A946000000000000000000000000000000000000000000000000C2
:2047E0000000000000000000000000000000000000000000000000000000000000000000B9
:20480000000000000000000000000000000000000000000000000000000000000000000098
:20482000000000000000000000000000000000000000000000000000000000000000000078
:20484000000000000000000000000000000000000000000000000000000000000000000058
:204860000000000000000000000000000000001F5683A0A99A7C644F40353132333333338A
:204880003333333232343D475A708D9E9F8B6C441400000000000000000000000000000080
:2048A0000000000000000000002C593531313131313131313131313131313131313131316A
:2048C000313131313133A532000000000000000000000000000000000000000000000000D9
:2048E0000000000000000000000000000000000000000000000000000000000000000000B8
:20490000000000000000000000000000000000000000000000000000000000000000000097
:20492000000000000000000000000000000000000000000000000000000000000000000077
:20494000000000000000000000000000000000000000000000000000000000000000000057
:204960000000000000000000000000001F568399936C4C38333333323231313131313131CF
:20498000313131313131313233333332425C81A4A384531200000000000000000000000074
:2049A0000000000000000000000A5B37313131313131313131313131313131313131313187
:2049C0003131313131349C0C00000000000000000000000000000000000000000000000006
:2049E0000000000000000000000000000000000000000000000000000000000000000000B7
:204A0000000000000000000000000000000000000000000000000000000000000000000096
:204A2000000000000000000000000000000000000000000000000000000000000000000076
:204A4000000000000000000000000000000000000000000000000000000000000000000056
:204A60000000000000000000001253839687593B3433323131313131313131313131313187
:204A8000313131313131313131313131323333344A73A39E70280000000000000000000068
:204AA00000000000000000000000563D31313131313131313131313131313131313131318F
:204AC00031313131314383000000000000000000000000000000000000000000000000001B
:204AE0000000000000000000000000000000000000000000000000000000000000000000B6
:204B0000000000000000000000000000000000000000000000000000000000000000000095
:204B2000000000000000000000000000000000000000000000000000000000000000000075
:204B4000000000000000000000000000000000000000000000000000000000000000000055
:204B60000000000000000028719A96623C3332313131313131313131313131313131313128
:204B8000313131313131313131313131313131313233324E7F97722B00000000000000006D
:204BA000000000000000000000004346313131313131313131313131313131313131313198
:204BC00031313131326A540000000000000000000000000000000000000000000000000021
:204BE0000000000000000000000000000000000000000000000000000000000000000000B5
:204C0000000000000000000000000000000000000000000000000000000000000000000094
:204C2000000000000000000000000000000000000000000000000000000000000000000074
:204C4000000000000000000000000000000000000000000000000000000000000000000054
:204C600000000000002C769E814B36323131313131313131313131313131313131313131EC
:204C80003131313131313131313131313131313131313132333E688C702B0000000000003F
:204CA0000000000000000000000011493331313131313131313131313131313131313131C4
:204CC000313131313581120000000000000000000000000000000000000000000000000048
:204CE0000000000000000000000000000000000000000000000000000000000000000000B4
:204D0000000000000000000000000000000000000000000000000000000000000000000093
:204D2000000000000000000000000000000000000000000000000000000000000000000073
:204D4000000000000000000000000000000000000000000000000000000000000000000053
:204D600000000029779D7A443432313131313131313131313131313131313131313131319C
:204D8000313131313131313131313131313131313131313131323336608A712B00000000ED
:204DA00000000000000000000000004D4131313131313131313131313131313131313131C2
:204DC00031313131516D000000000000000000000000000000000000000000000000000051
:204DE0000000000000000000000000000000000000000000000000000000000000000000B3
:204E0000000000000000000000000000000000000000000000000000000000000000000092
:204E2000000000000000000000000000000000000000000000000000000000000000000072
:204E4000000000000000000000000000000000000000000000000000000000000000000052
:204E600000136FA1814434313131313131313131313131313131313131313131313131314D
:204E80003131313131313131313131313131313131313131313131313336638F7327000085
:204EA0000000000000000000000000225034313131313131313131313131313131313131DA
:204EC0003131313B822400000000000000000000000000000000000000000000000000005E
:204EE0000000000000000000000000000000000000000000000000000000000000000000B2
:204F0000000000000000000000000000000000000000000000000000000000000000000091
:204F2000000000000000000000000000000000000000000000000000000000000000000071
:204F4000000000000000000000000000000000000000000000000000000000000000000051
:204F60004D9A944E3531313131313131313131313131313131313131313131313131313108
:204F80003131313131313131313131313131313131313131313131313131333B759C68032D
:204FA000000000000000000000000000534F323131313131313131313131313131313131DC
:204FC0003131346E6800000000000000000000000000000000000000000000000000000065
:204FE0000000000000000000000000000000000000000000000000000000000000000000B1
:20500000000000000000000000000000000000000000000000000000000000000000000090
:20502000000000000000000000000000000000000000000000000000000000000000000070
:20504000000000000000000000000000000000000000000000000000000000000000127AC4
:20506000A3633A323131313131313131313131313131313131313131313131313131313162
:20508000313131313131313131313131313131313131313131313131313131313348947F26
:2050A0001100000000000000000000000865493131313131313131313131313131313131E8
:2050C00031355B830300000000000000000000000000000000000000000000000000000089
:2050E0000000000000000000000000000000000000000000000000000000000000000000B0
:2051000000000000000000000000000000000000000000000000000000000000000000008F
:2051200000000000000000000000000000000000000000000000000000000000000000006F
:20514000000000000000000000000000000000000000000000000000000000000033918B00
:205160004432313131313131313131313131313131313131313131313131313131313131FB
:205180003131313131313131313131313131313131313131313131313131313131323268B6
:2051A000570000000000000000000000002A6A4831313131313131313131313131313131AC
:2051C000385C7E1C00000000000000000000000000000000000000000000000000000000A1
:2051E0000000000000000000000000000000000000000000000000000000000000000000AF
:2052000000000000000000000000000000000000000000000000000000000000000000008E
:2052200000000000000000000000000000000000000000000000000000000000000000006E
:20524000000000000000000000000000000000000000000000000000000000004893673AD2
:2052600031313131313131313131313131313131313131313131313131313131313131310E
:205280003131313131313131313131313131313131313131313131313131313131313133EC
:2052A0003A000000000000000000000000002A6756393131313131313131313131313146D1
:2052C000636A0C0000000000000000000000000000000000000000000000000000000000F5
:2052E0000000000000000000000000000000000000000000000000000000000000000000AE
:2053000000000000000000000000000000000000000000000000000000000000000000008D
:2053200000000000000000000000000000000000000000000000000000000000000000006D
:205340000000000000000000000000000000000000000000000000000000005E8C4F3531AE
:2053600031313131313131313131313131313131313131313131313131313131313131310D
:205380003131313131313131313131313131313131313131313131313131313131313149D5
:2053A00050000000000000000000000000000008585E503C31313131313131313646546398
:2053C00041000000000000000000000000000000000000000000000000000000000000008C
:2053E0000000000000000000000000000000000000000000000000000000000000000000AD
:2054000000000000000000000000000000000000000000000000000000000000000000008C
:2054200000000000000000000000000000000000000000000000000000000000000000006C
:20544000000000000000000000000000000000000000000000000000001479874332313161
:2054600031313131313131313131313131313131313131313131313131313131313131310C
:2054800031313131313131313131313131313131313131313131313131313131313149768F
:2054A000260000000000000000000000000000000022555E54524A4544474D4F53563F00AD
:2054C0000000000000000000000000000000000000000000000000000000000000000000CC
:2054E0000000000000000000000000000000000000000000000000000000000000000000AC
:2055000000000000000000000000000000000000000000000000000000000000000000008B
:2055200000000000000000000000000000000000000000000000000000000000000000006B
:2055400000000000000000000000000000000000000000000000000032927D3E3131313108
:2055600031313131313131313131313131313131313131313131313131313131313131310B
:20558000313131313131313131313131313131313131313131313131313131313149813F75
:2055A00000000000000000000000000000000000000000002A3A3D3B3A3B372B0B0000002D
:2055C0000000000000000000000000000000000000000000000000000000000000000000CB
:2055E0000000000000000000000000000000000000000000000000000000000000000000AB
:2056000000000000000000000000000000000000000000000000000000000000000000008A
:2056200000000000000000000000000000000000000000000000000000000000000000006A
:20564000000000000000000000000000000000000000000000000040A0703B3131313131CA
:2056600031313131313131313131313131313131313131313131313131313131313131310A
:20568000313131313131313131313131313131313131313131313131313131314A8244009E
:2056A0000000000000000000000000000000000000000000000000000000000000000000EA
:2056C0000000000000000000000000000000000000000000000000000000000000000000CA
:2056E0000000000000000000000000000000000000000000000000000000000000000000AA
:20570000000000000000000000000000000000000000000000000000000000000000000089
:20572000000000000000000000000000000000000000000000000000000000000000000069
:205740000000000000000000000000000000000000000000000040A26B393131313131319D
:20576000313131313131313131313131313131313131313131313131313131313131313109
:205780003131313131313131313131313131313131313131313131313131314A83450000CC
:2057A0000000000000000000000000000000000000000000000000000000000000000000E9
:2057C0000000000000000000000000000000000000000000000000000000000000000000C9
:2057E0000000000000000000000000000000000000000000000000000000000000000000A9
:20580000000000000000000000000000000000000000000000000000000000000000000088
:20582000000000000000000000000000000000000000000000000000000000000000000068
:20584000000000000000000000000000000000000000000000329F6939313131313131317E
:20586000313131313131313131313131313131313131313131313131313131313131313108
:2058800031313131313131313131313131313131313131313131313131314A8445000000FB
:2058A0000000000000000000000000000000000000000000000000000000000000000000E8
:2058C0000000000000000000000000000000000000000000000000000000000000000000C8
:2058E0000000000000000000000000000000000000000000000000000000000000000000A8
:20590000000000000000000000000000000000000000000000000000000000000000000087
:20592000000000000000000000000000000000000000000000000000000000000000000067
:20594000000000000000000000000000000000000000000014916C3A313131313131313174
:20596000313131313131313131313131313131313131313131313131313131313131313107
:2059800031313131313131313131313131313131313131313131313131498645000000002A
:2059A0000000000000000000000000000000000000000000000000000000000000000000E7
:2059C0000000000000000000000000000000000000000000000000000000000000000000C7
:2059E0000000000000000000000000000000000000000000000000000000000000000000A7
:205A0000000000000000000000000000000000000000000000000000000000000000000086
:205A2000000000000000000000000000000000000000000000000000000000000000000066
:205A4000000000000000000000000000000000000000000078753C31313131313131313164
:205A6000313131313131313131313131313131313131313131313131313131313131313106
:205A800031313131313131313131313131313131313131313131313149864500000000005A
:205AA0000000000000000000000000000000000000000000000000000000000000000000E6
:205AC0000000000000000000000000000000000000000000000000000000000000000000C6
:205AE0000000000000000000000000000000000000000000000000000000000000000000A6
:205B0000000000000000000000000000000000000000000000000000000000000000000085
:205B2000000000000000000000000000000000000000000000000000000000000000000065
:205B4000000000000000000000000000000000000000005D7E3F3131313131313131313141
:205B6000313131313131313131313131313131313131313131313131313132373A3E3F42C9
:205B800040403A38323131313131313131313131313131313131314985450000000000005C
:205BA0000000000000000000000000000000000000000000000000000000000000000000E5
:205BC0000000000000000000000000000000000000000000000000000000000000000000C5
:205BE0000000000000000000000000000000000000000000000000000000000000000000A5
:205C0000000000000000000000000000000000000000000000000000000000000000000084
:205C2000000000000000000000000000000000000000000000000000000000000000000064
:205C400000000000000000000000000000000000000048814531313131313131313131311B
:205C60003131313131313131313131313131313131313131313138434C576368665D524EA2
:205C8000525E686C675A53473B333131313131313131313131314986450000000000000057
:205CA0000000000000000000000000000000000000000000000000000000000000000000E4
:205CC0000000000000000000000000000000000000000000000000000000000000000000C4
:205CE0000000000000000000000000000000000000000000000000000000000000000000A4
:205D0000000000000000000000000000000000000000000000000000000000000000000083
:205D2000000000000000000000000000000000000000000000000000000000000000000063
:205D4000000000000000000000000000000000000032884C313131313131313131313131F1
:205D6000313131313131313131313131313131313131313A495A6466635C4F37150000007F
:205D800000001537505F696F6D604F40323131313131313131498545000000000000000007
:205DA0000000000000000000000000000000000000000000000000000000000000000000E3
:205DC0000000000000000000000000000000000000000000000000000000000000000000C3
:205DE0000000000000000000000000000000000000000000000000000000000000000000A3
:205E0000000000000000000000000000000000000000000000000000000000000000000082
:205E2000000000000000000000000000000000000000000000000000000000000000000062
:205E4000000000000000000000000000000000000A885D34313131313131313131313131D3
:205E6000313131313131313131313131313131313343566F6E5427000000000000000000EE
:205E800000000000000000001B445D635B4A38313131313149834400000000000000000001
:205EA0000000000000000000000000042B280000000000000000000000000000000000008B
:205EC0000000000000000000000000000000000000000000000000000000000000000000C2
:205EE0000000000000000000000000000000000000000000000000000000000000000000A2
:205F0000000000000000000000000000000000000000000000000000000000000000000081
:205F2000000000000000000000000000000000000000000000000000000000000000000061
:205F4000000000000000000000000000000000006B773B31313131313131313131313131A7
:205F600031313131313131313131313131313445617F703800000000000000000000000072
:205F8000000000000000000000000000385E60503831314A793D0000000000000000000021
:205FA0000000000000000000000034713F3D67010000000000000000000000000000000058
:205FC0000000000000000000000000000000000000000000000000000000000000000000C1
:205FE0000000000000000000000000000000000000000000000000000000000000000000A1
:20600000000000000000000000000000000000000000000000000000000000000000000080
:20602000000000000000000000000000000000000000000000000000000000000000000060
:2060400000000000000000000000000000000030824531313131313131313131313131319B
:2060600031313131313131313131313131415F86752E0000000000000000000000000000DA
:20608000000000000000000000000000000026544F3A385520000000000000000000000050
:2060A000000000000000000000428A4C32336E730000000000000000000000000000000082
:2060C0000000000000000000000000000000000000000000000000000000000000000000C0
:2060E0000000000000000000000000000000000000000000000000000000000000000000A0
:2061000000000000000000000000000000000000000000000000000000000000000000007F
:2061200000000000000000000000000000000000000000000000000000000000000000005F
:20614000000000000000000000000000000000745632313131313131313131313131313195
:2061600031313131313131313131313950867F350000000000000000000000000000000041
:2061800000000000000000000000000000000000000C0500000000000000000000000000EE
:2061A0000000000000000000448E4C32313135984E00000000000000000000000000000012
:2061C0000000000000000000000000000000000000000000000000000000000000000000BF
:2061E00000000000000000000000000000000000000000000000000000000000000000009F
:2062000000000000000000000000000000000000000000000000000000000000000000007E
:2062200000000000000000000000000000000000000000000000000000000000000000005E
:2062400000000000000000000000000000004F713C31313131313131313131313131313163
:2062600031313131313131313131426E8E54000000000000000000000000000000000000A2
:206280000000000000000000000000000000000000000000000000000000000000000000FE
:2062A00000000000000000448E4C32313131324E9B130000000000000000000000000000CD
:2062C0000000000000000000000000000000000000000000000000000000000000000000BE
:2062E00000000000000000000000000000000000000000000000000000000000000000009E
:2063000000000000000000000000000000000000000000000000000000000000000000007D
:2063200000000000000000000000000000000000000000000000000000000000000000005D
:2063400000000000000000000000000000147D4A3131313131313131313131313131313152
:2063600031313131313131313449897D1F00000000000000000000000000000000000000F3
:206380000000000000000000000000000000000000000000000000000000000000000000FD
:2063A000000000000000448E4C32313131313133857100000000000000000000000000006F
:2063C0000000000000000000000000000000000000000000000000000000000000000000BD
:2063E00000000000000000000000000000000000000000000000000000000000000000009D
:2064000000000000000000000000000000000000000000000000000000000000000000007C
:2064200000000000000000000000000000000000000000000000000000000000000000005C
:20644000000000000000000000000000006967363131313131313131313131313131313126
:20646000313131313131313655936200000000000000000000000000000000000000000045
:206480000000000000000000000000000000000000000000000000000000000000000000FC
:2064A0000000000000448D4B32313131313131323EA329000000000000000000000000002C
:2064C0000000000000000000000000000000000000000000000000000000000000000000BC
:2064E00000000000000000000000000000000000000000000000000000000000000000009C
:2065000000000000000000000000000000000000000000000000000000000000000000007B
:2065200000000000000000000000000000000000000000000000000000000000000000005B
:2065400000000000000000000000000029804531313131313131313131313131313131310C
:20656000313131313131365E9A4E0000000000000000000000000000000000000000000079
:206580000000000000000000000000000000000000000000000000000000000000000000FB
:2065A00000000000448E4B32313131313131313133707C00000000000000000000000000E5
:2065C0000000000000000000000000000000000000000000000000000000000000000000BB
:2065E00000000000000000000000000000000000000000000000000000000000000000009B
:2066000000000000000000000000000000000000000000000000000000000000000000007A
:2066200000000000000000000000000000000000000000000000000000000000000000005A
:206640000000000000000000000000007161343131313131313131313131313131313131F3
:20666000313131313137619F470000000000000000000000000000000000000000000000A7
:206680000000000000000000000000000000000000000000000000000000000000000000FA
:2066A000000000448D4B323131313131313131313139A12C0000000000000000000000009C
:2066C0000000000000000000000000000000000000000000000000000000000000000000BA
:2066E00000000000000000000000000000000000000000000000000000000000000000009A
:20670000000000000000000000000000000000000000000000000000000000000000000079
:20672000000000000000000000000000000000000000000000000000000000000000000059
:206740000000000000000000000000298146313131313131313131313131313131313131D7
:2067600031313131355F9F46000000000000000000000000000000000000000000000000DC
:206780000000000000000000000000000000000000000000000000000000000000000000F9
:2067A0000000448D4A333131313131313131313131336E7D00000000000000000000000052
:2067C0000000000000000000000000000000000000000000000000000000000000000000B9
:2067E000000000000000000000000000000000000000000000000000000000000000000099
:20680000000000000000000000000000000000000000000000000000000000000000000078
:20682000000000000000000000000000000000000000000000000000000000000000000058
:2068400000000000000000000000006D6434313131313131313131313131313131313131C1
:2068600031313133569E470000000000000000000000000000000000000000000000000017
:206880000000000000000000000000000000000000000000000000000000000000000000F8
:2068A00000448C4A33313131313131313131313131313BA429000000000000000000000006
:2068C0000000000000000000000000000000000000000000000000000000000000000000B8
:2068E000000000000000000000000000000000000000000000000000000000000000000098
:20690000000000000000000000000000000000000000000000000000000000000000000077
:20692000000000000000000000000000000000000000000000000000000000000000000057
:206940000000000000000000000013824931313131313131313131313131313131313131B6
:206960003131314A9B4E000000000000000000000000000000000000000000000000000051
:206980000000000000000000000000000000000000000000000000000000000000000000F7
:2069A000438C48333131313131313131313131313131337D760000000000000000000000B9
:2069C0000000000000000000000000000000000000000000000000000000000000000000B7
:2069E000000000000000000000000000000000000000000000000000000000000000000097
:206A0000000000000000000000000000000000000000000000000000000000000000000076
:206A2000000000000000000000000000000000000000000000000000000000000000000056
:206A4000000000000000000000005371373131313131313131313131313131313131313198
:206A600031313F96610000000000000000000000000000000000000000000000000000007E
:206A8000000000000000000000000000000000000000000000000000000000000000003ABC
:206AA0008848333131313131313131313131313131313244A81300000000000000000000C3
:206AC0000000000000000000000000000000000000000000000000000000000000000000B6
:206AE000000000000000000000000000000000000000000000000000000000000000000096
:206B0000000000000000000000000000000000000000000000000000000000000000000075
:206B2000000000000000000000000000000000000000000000000000000000000000000055
:206B400000000000000000000000745131313131313131313131313131313131313131319C
:206B600031377A7E00000000000000000000000000000000000000000000000000000000B5
:206B8000000000000000000000000000000000000000000000000000000000000000187964
:206BA00048333131313131313131313131313131313131339C5700000000000000000000F3
:206BC0000000000000000000000000000000000000000000000000000000000000000000B5
:206BE000000000000000000000000000000000000000000000000000000000000000000095
:206C0000000000000000000000000000000000000000000000000000000000000000000074
:206C2000000000000000000000000000000000000000000000000000000000000000000054
:206C40000000000000000000001F744031313131313131313131313131313131313131318D
:206C60003255961E00000000000000000000000000000000000000000000000000000000D9
:206C80000000000000000000000000000000000000000000000000000000000000004B4861
:206CA00033313131313131313131313131313131313131335C8F0000000000000000000011
:206CC0000000000000000000000000000000000000000000000000000000000000000000B4
:206CE000000000000000000000000000000000000000000000000000000000000000000094
:206D0000000000000000000000000000000000000000000000000000000000000000000073
:206D2000000000000000000000000000000000000000000000000000000000000000000053
:206D4000000000000000000000536333313131313131313131313131313131313131313176
:206D60003C9C520000000000000000000000000000000000000000000000000000000000E9
:206D800000000000000000000000000000000000000000000000000000000000000035348A
:206DA000313131313131313131313131313131313131313139A91F000000000000000000FE
:206DC0000000000000000000000000000000000000000000000000000000000000000000B3
:206DE000000000000000000000000000000000000000000000000000000000000000000093
:206E0000000000000000000000000000000000000000000000000000000000000000000072
:206E2000000000000000000000000000000000000000000000000000000000000000000052
:206E40000000000000000000006F4E3131313131313131313131313131313131313131346D
:206E60006C8300000000000000000000000000000000000000000000000000000000000023
:206E80000000000000000000000000000000000000000000000000000000000000004A3E6A
:206EA000313131313131313131313131313131313131313133925B000000000000000000DE
:206EC0000000000000000000000000000000000000000000000000000000000000000000B2
:206EE000000000000000000000000000000000000000000000000000000000000000000092
:206F0000000000000000000000000000000000000000000000000000000000000000000071
:206F2000000000000000000000000000000000000000000000000000000000000000000051
:206F40000000000000000000146F4031313131313131313131313131313131313131313F5B
:206F60009C3500000000000000000000000000000000000000000000000000000000000040
:206F8000000000000000000000000000000000000000000000000000000000000000375268
:206FA0003331313131313131313131313131313131313131335B8F000000000000000000DE
:206FC0000000000000000000000000000000000000000000000000000000000000000000B1
:206FE000000000000000000000000000000000000000000000000000000000000000000091
:20700000000000000000000000000000000000000000000000000000000000000000000070
:20702000000000000000000000000000000000000000000000000000000000000000000050
:20704000000000000000000040613331313131313131313131313131313131313131338303
:207060007F0000000000000000000000000000000000000000000000000000000000000091
:20708000000000000000000000000000000000000000000000000000000000000000006987
:2070A00042313131313131313131313131313131313131313138A2140000000000000000CC
:2070C0000000000000000000000000000000000000000000000000000000000000000000B0
:2070E000000000000000000000000000000000000000000000000000000000000000000090
:2071000000000000000000000000000000000000000000000000000000000000000000006F
:2071200000000000000000000000000000000000000000000000000000000000000000004F
:2071400000000000000000005A50313131313131313131313131313131313131313244ABC1
:207160003900000000000000000000000000000000000000000000000000000000000000D6
:20718000000000000000000000000000000000000000000000000000000000000000003DB2
:2071A0005B353131313131313131313131313131313131313132984600000000000000008C
:2071C0000000000000000000000000000000000000000000000000000000000000000000AF
:2071E00000000000000000000000000000000000000000000000000000000000000000008F
:2072000000000000000000000000000000000000000000000000000000000000000000006E
:2072200000000000000000000000000000000000000000000000000000000000000000004E
:207240000000000000000000654531313131313131313131313131313131313131327090AF
:2072600000000000000000000000000000000000000000000000000000000000000000000E
:207280000000000000000000000000000000000000000000000000000000000000000000EE
:2072A000663E31313131313131313131313131313131313131336F73000000000000000072
:2072C0000000000000000000000000000000000000000000000000000000000000000000AE
:2072E00000000000000000000000000000000000000000000000000000000000000000008E
:2073000000000000000000000000000000000000000000000000000000000000000000006D
:2073200000000000000000000000000000000000000000000000000000000000000000004D
:207340000000000000000012653C3131313131313131313131313131313131313137A75E9B
:2073600000000000000000000000000000000000000000000000000000000000000000000D
:207380000000000000000000000000000000000000000000000000000000000000000000ED
:2073A000564F33313131313131313131313131313131313131314D9600000000000000006F
:2073C0000000000000000000000000000000000000000000000000000000000000000000AD
:2073E00000000000000000000000000000000000000000000000000000000000000000008D
:2074000000000000000000000000000000000000000000000000000000000000000000006C
:2074200000000000000000000000000000000000000000000000000000000000000000004C
:2074400000000000000000345F33313131313131313131313131313131313131324EAD21A6
:2074600000000000000000000000000000000000000000000000000000000000000000000C
:207480000000000000000000000000000000000000000000000000000000000000000000EC
:2074A0002561373131313131313131313131313131313131313139A9120000000000000078
:2074C0000000000000000000000000000000000000000000000000000000000000000000AC
:2074E00000000000000000000000000000000000000000000000000000000000000000008C
:2075000000000000000000000000000000000000000000000000000000000000000000006B
:2075200000000000000000000000000000000000000000000000000000000000000000004B
:207540000000000000000048573131313131313131313131313131313131313133778A00B5
:2075600000000000000000000000000000000000000000000000000000000000000000000B
:207580000000000000000000000000000000000000000000000000000000000000000000EB
:2075A000006D3F3131313131313131313131313131313131313132A836000000000000006C
:2075C0000000000000000000000000000000000000000000000000000000000000000000AB
:2075E00000000000000000000000000000000000000000000000000000000000000000008B
:2076000000000000000000000000000000000000000000000000000000000000000000006A
:2076200000000000000000000000000000000000000000000000000000000000000000004A
:2076400000000000000000525031313131313131313131313131313131313131349F5B00B7
:2076600000000000000000000000000000000000000000000000000000000000000000000A
:207680000000000000000000000000000000000000000000000000000000000000000000EA
:2076A0000064473131313131313131313131313131313131313133954E0000000000000066
:2076C0000000000000000000000000000000000000000000000000000000000000000000AA
:2076E00000000000000000000000000000000000000000000000000000000000000000008A
:20770000000000000000000000000000000000000000000000000000000000000000000069
:20772000000000000000000000000000000000000000000000000000000000000000000049
:20774000000000000000005A48313131313131313131313131313131313131323DA62600DA
:20776000000000000000000000000000000000000000000000000000000000000000000009
:207780000000000000000000000000000000000000000000000000000000000000000000E9
:2077A00000465B3431313131313131313131313131313131313133795B000000000000007B
:2077C0000000000000000000000000000000000000000000000000000000000000000000A9
:2077E000000000000000000000000000000000000000000000000000000000000000000089
:20780000000000000000000000000000000000000000000000000000000000000000000068
:20782000000000000000000000000000000000000000000000000000000000000000000048
:207840000000000000000062413131313131313131313131313131313131313253930000FB
:20786000000000000000000000000000000000000000000000000000000000000000000008
:207880000000000000000000000000000000000000000000000000000000000000000000E8
:2078A000001B663831313131313131313131313131313131313133616500000000000000A4
:2078C0000000000000000000000000000000000000000000000000000000000000000000A8
:2078E000000000000000000000000000000000000000000000000000000000000000000088
:20790000000000000000000000000000000000000000000000000000000000000000000067
:20792000000000000000000000000000000000000000000000000000000000000000000047
:20794000000000000000146A3C313131313131313131313131313131313131336D7D0000DE
:20796000000000000000000000000000000000000000000000000000000000000000000007
:207980000000000000000000000000000000000000000000000000000000000000000000E7
:2079A0000000693D31313131313131313131313131313131313132506F00000000000000BE
:2079C0000000000000000000000000000000000000000000000000000000000000000000A7
:2079E000000000000000000000000000000000000000000000000000000000000000000087
:207A0000000000000000000000000000000000000000000000000000000000000000000066
:207A2000000000000000000000000000000000000000000000000000000000000000000046
:207A4000000000000000366D3831313131313131313131313131313131313133836D0000B6
:207A6000000000000000000000000000000000000000000000000000000000000000000006
:207A80000000000000000000000000000000000000000000000000000000000000000000E6
:207AA0000000644131313131313131313131313131313131313131447E00000000000000BC
:207AC0000000000000000000000000000000000000000000000000000000000000000000A6
:207AE000000000000000000000000000000000000000000000000000000000000000000086
:207B0000000000000000000000000000000000000000000000000000000000000000000065
:207B2000000000000000000000000000000000000000000000000000000000000000000045
:207B40000000000000004B6C3431313131313131313131313131313131313133976400009A
:207B6000000000000000000000000000000000000000000000000000000000000000000005
:207B80000000000000000000000000000000000000000000000000000000000000000000E5
:207BA00000005F44313131313131313131313131313131313131313C9300000000000000B0
:207BC0000000000000000000000000000000000000000000000000000000000000000000A5
:207BE000000000000000000000000000000000000000000000000000000000000000000085
:207C0000000000000000000000000000000000000000000000000000000000000000000064
:207C2000000000000000000000000000000000000000000000000000000000000000000044
:207C400000000000000056643331313131313131313131313131313131313131A56100008E
:207C6000000000000000000000000000000000000000000000000000000000000000000004
:207C80000000000000000000000000000000000000000000000000000000000000000000E4
:207CA00000005C473131313131313131313131313131313131313135AB140000000000008A
:207CC0000000000000000000000000000000000000000000000000000000000000000000A4
:207CE000000000000000000000000000000000000000000000000000000000000000000084
:207D0000000000000000000000000000000000000000000000000000000000000000000063
:207D2000000000000000000000000000000000000000000000000000000000000000000043
:207D400000000000000059603231313131313131313131313131313131313133AE61000084
:207D6000000000000000000000000000000000000000000000000000000000000000000003
:207D80000000000000000000000000000000000000000000000000000000000000000000E3
:207DA00000005B4C3031313131313131313131313131313131313132BF3600000000000053
:207DC0000000000000000000000000000000000000000000000000000000000000000000A3
:207DE000000000000000000000000000000000000000000000000000000000000000000083
:207E0000000000000000000000000000000000000000000000000000000000000000000062
:207E2000000000000000000000000000000000000000000000000000000000000000000042
:207E4000000000000000595D3231313131313131313131313131313131313134B46100007F
:207E6000000000000000000000000000000000000000000000000000000000000000000002
:207E80000000000000000000000000000000000000000000000000000000000000000000E2
:207EA00000005D4F3131313131313131313131313131313131313131C94C0000000000002D
:207EC0000000000000000000000000000000000000000000000000000000000000000000A2
:207EE000000000000000000000000000000000000000000000000000000000000000000082
:207F0000000000000000000000000000000000000000000000000000000000000000000061
:207F2000000000000000000000000000000000000000000000000000000000000000000041
:207F4000000000000000595D3131313131313131313131313131313131313136B56100007C
:207F6000000000000000000000000000000000000000000000000000000000000000000001
:207F80000000000000000000000000000000000000000000000000000000000000000000E1
:207FA00000005C513131313131313131313131313131313131313131C85300000000000025
:207FC0000000000000000000000000000000000000000000000000000000000000000000A1
:207FE000000000000000000000000000000000000000000000000000000000000000000081
:20800000000000000000000000000000000000000000000000000000000000000000000060
:20802000000000000000000000000000000000000000000000000000000000000000000040
:20804000000000000000595D3231313131313131313131313131313131313135B36100007D
:20806000000000000000000000000000000000000000000000000000000000000000000000
:208080000000000000000000000000000000000000000000000000000000000000000000E0
:2080A00000005C4E3131313131313131313131313131313131313131C94C0000000000002D
:2080C0000000000000000000000000000000000000000000000000000000000000000000A0
:2080E000000000000000000000000000000000000000000000000000000000000000000080
:2081000000000000000000000000000000000000000000000000000000000000000000005F
:2081200000000000000000000000000000000000000000000000000000000000000000003F
:2081400000000000000059603231313131313131313131313131313131313132AE61000081
:208160000000000000000000000000000000000000000000000000000000000000000000FF
:208180000000000000000000000000000000000000000000000000000000000000000000DF
:2081A00000005B4C3131313131313131313131313131313131313132BF360000000000004E
:2081C00000000000000000000000000000000000000000000000000000000000000000009F
:2081E00000000000000000000000000000000000000000000000000000000000000000007F
:2082000000000000000000000000000000000000000000000000000000000000000000005E
:2082200000000000000000000000000000000000000000000000000000000000000000003E
:2082400000000000000055653231313131313131313131313131313131313132A561000088
:208260000000000000000000000000000000000000000000000000000000000000000000FE
:208280000000000000000000000000000000000000000000000000000000000000000000DE
:2082A00000005C473131313131313131313131313131313131313136AB1400000000000083
:2082C00000000000000000000000000000000000000000000000000000000000000000009E
:2082E00000000000000000000000000000000000000000000000000000000000000000007E
:2083000000000000000000000000000000000000000000000000000000000000000000005D
:2083200000000000000000000000000000000000000000000000000000000000000000003D
:208340000000000000004B6C36313131313131313131313131313131313131329665000091
:208360000000000000000000000000000000000000000000000000000000000000000000FD
:208380000000000000000000000000000000000000000000000000000000000000000000DD
:2083A00000005F43313131313131313131313131313131313131313C9300000000000000A9
:2083C00000000000000000000000000000000000000000000000000000000000000000009D
:2083E00000000000000000000000000000000000000000000000000000000000000000007D
:2084000000000000000000000000000000000000000000000000000000000000000000005C
:2084200000000000000000000000000000000000000000000000000000000000000000003C
:20844000000000000000366D3831313131313131313131313131313131313133846D0000AB
:208460000000000000000000000000000000000000000000000000000000000000000000FC
:208480000000000000000000000000000000000000000000000000000000000000000000DC
:2084A0000000644131313131313131313131313131313131313132447F00000000000000B0
:2084C00000000000000000000000000000000000000000000000000000000000000000009C
:2084E00000000000000000000000000000000000000000000000000000000000000000007C
:2085000000000000000000000000000000000000000000000000000000000000000000005B
:2085200000000000000000000000000000000000000000000000000000000000000000003B
:20854000000000000000146A3B313131313131313131313131313131313131336D7D0000D3
:208560000000000000000000000000000000000000000000000000000000000000000000FB
:208580000000000000000000000000000000000000000000000000000000000000000000DB
:2085A0000000683D31313131313131313131313131313131313132506E00000000000000B4
:2085C00000000000000000000000000000000000000000000000000000000000000000009B
:2085E00000000000000000000000000000000000000000000000000000000000000000007B
:2086000000000000000000000000000000000000000000000000000000000000000000005A
:2086200000000000000000000000000000000000000000000000000000000000000000003A
:208640000000000000000062403131313131313131313131313131313131313353940000EC
:208660000000000000000000000000000000000000000000000000000000000000000000FA
:208680000000000000000000000000000000000000000000000000000000000000000000DA
:2086A000001B66393131313131313131313131313131313131313262650000000000000095
:2086C00000000000000000000000000000000000000000000000000000000000000000009A
:2086E00000000000000000000000000000000000000000000000000000000000000000007A
:20870000000000000000000000000000000000000000000000000000000000000000000059
:20872000000000000000000000000000000000000000000000000000000000000000000039
:20874000000000000000005948313131313131313131313131313131313131313DA52600CD
:208760000000000000000000000000000000000000000000000000000000000000000000F9
:208780000000000000000000000000000000000000000000000000000000000000000000D9
:2087A00000465B3331313131313131313131313131313131313133795B000000000000006C
:2087C000000000000000000000000000000000000000000000000000000000000000000099
:2087E000000000000000000000000000000000000000000000000000000000000000000079
:20880000000000000000000000000000000000000000000000000000000000000000000058
:20882000000000000000000000000000000000000000000000000000000000000000000038
:2088400000000000000000524F31313131313131313131313131313131313131349F5B00A6
:208860000000000000000000000000000000000000000000000000000000000000000000F8
:208880000000000000000000000000000000000000000000000000000000000000000000D8
:2088A0000064483131313131313131313131313131313131313133954E0000000000000053
:2088C000000000000000000000000000000000000000000000000000000000000000000098
:2088E000000000000000000000000000000000000000000000000000000000000000000078
:20890000000000000000000000000000000000000000000000000000000000000000000057
:20892000000000000000000000000000000000000000000000000000000000000000000037
:208940000000000000000048583131313131313131313131313131313131313133768A00A1
:208960000000000000000000000000000000000000000000000000000000000000000000F7
:208980000000000000000000000000000000000000000000000000000000000000000000D7
:2089A000006E3F3131313131313131313131313131313131313133A8360000000000000056
:2089C000000000000000000000000000000000000000000000000000000000000000000097
:2089E000000000000000000000000000000000000000000000000000000000000000000077
:208A0000000000000000000000000000000000000000000000000000000000000000000056
:208A2000000000000000000000000000000000000000000000000000000000000000000036
:208A400000000000000000346034313131313131313131313131313131313131324EAB2190
:208A60000000000000000000000000000000000000000000000000000000000000000000F6
:208A80000000000000000000000000000000000000000000000000000000000000000000D6
:208AA0002562383131313131313131313131313131313131313138A9120000000000000061
:208AC000000000000000000000000000000000000000000000000000000000000000000096
:208AE000000000000000000000000000000000000000000000000000000000000000000076
:208B0000000000000000000000000000000000000000000000000000000000000000000055
:208B2000000000000000000000000000000000000000000000000000000000000000000035
:208B40000000000000000012643B3131313131313131313131313131313131313137A85D85
:208B60000000000000000000000000000000000000000000000000000000000000000000F5
:208B80000000000000000000000000000000000000000000000000000000000000000000D5
:208BA000544F31313131313131313131313131313131313131324D9600000000000000005A
:208BC000000000000000000000000000000000000000000000000000000000000000000095
:208BE000000000000000000000000000000000000000000000000000000000000000000075
:208C0000000000000000000000000000000000000000000000000000000000000000000054
:208C2000000000000000000000000000000000000000000000000000000000000000000034
:208C4000000000000000000066453131313131313131313131313131313131313133709093
:208C60000000000000000000000000000000000000000000000000000000000000000000F4
:208C80000000000000000000000000000000000000000000000000000000000000000000D4
:208CA000663E31313131313131313131313131313131313131326F73000000000000000059
:208CC000000000000000000000000000000000000000000000000000000000000000000094
:208CE000000000000000000000000000000000000000000000000000000000000000000074
:208D0000000000000000000000000000000000000000000000000000000000000000000053
:208D2000000000000000000000000000000000000000000000000000000000000000000033
:208D400000000000000000005A52313131313131313131313131313131313131313144AAA5
:208D60003800000000000000000000000000000000000000000000000000000000000000BB
:208D800000000000000000000000000000000000000000000000000000000000000000379C
:208DA000593531313131313131313131313131313131313131339946000000000000000070
:208DC000000000000000000000000000000000000000000000000000000000000000000093
:208DE000000000000000000000000000000000000000000000000000000000000000000073
:208E0000000000000000000000000000000000000000000000000000000000000000000052
:208E2000000000000000000000000000000000000000000000000000000000000000000032
:208E40000000000000000000406133313131313131313131313131313131313131313384E4
:208E60007A0000000000000000000000000000000000000000000000000000000000000078
:208E8000000000000000000000000000000000000000000000000000000000000000006270
:208EA00043313131313131313131313131313131313131313137A1140000000000000000AF
:208EC000000000000000000000000000000000000000000000000000000000000000000092
:208EE000000000000000000000000000000000000000000000000000000000000000000072
:208F0000000000000000000000000000000000000000000000000000000000000000000051
:208F2000000000000000000000000000000000000000000000000000000000000000000031
:208F4000000000000000000013683B31313131313131313131313131313131313131324A3C
:208F60009C1E00000000000000000000000000000000000000000000000000000000000037
:208F8000000000000000000000000000000000000000000000000000000000000000335B43
:208FA000373131313131313131313131313131313131313132528B000000000000000000C8
:208FC000000000000000000000000000000000000000000000000000000000000000000091
:208FE000000000000000000000000000000000000000000000000000000000000000000071
:20900000000000000000000000000000000000000000000000000000000000000000000050
:20902000000000000000000000000000000000000000000000000000000000000000000030
:20904000000000000000000000674A31313131313131313131313131313131313131313457
:209060007E5000000000000000000000000000000000000000000000000000000000000022
:20908000000000000000000000000000000000000000000000000000000000000000674227
:2090A000313131313131313131313131313131313131313133825B000000000000000000CC
:2090C000000000000000000000000000000000000000000000000000000000000000000090
:2090E000000000000000000000000000000000000000000000000000000000000000000070
:2091000000000000000000000000000000000000000000000000000000000000000000004F
:2091200000000000000000000000000000000000000000000000000000000000000000002F
:20914000000000000000000000505E33313131313131313131313131313131313131313358
:20916000475700000000000000000000000000000000000000000000000000000000000051
:2091800000000000000000000000000000000000000000000000000000000000004D5D35F0
:2091A0003131313131313131313131313131313131313131369C1F000000000000000000EA
:2091C00000000000000000000000000000000000000000000000000000000000000000008F
:2091E00000000000000000000000000000000000000000000000000000000000000000006F
:2092000000000000000000000000000000000000000000000000000000000000000000004E
:2092200000000000000000000000000000000000000000000000000000000000000000002E
:209240000000000000000000001E6A3C313131313131313131313131313131313131313671
:2092600066490000000000000000000000000000000000000000000000000000000000003F
:20928000000000000000000000000000000000000000000000000000000000001E6E3B31D6
:2092A0003131313131313131313131313131313131313132518B00000000000000000000FD
:2092C00000000000000000000000000000000000000000000000000000000000000000008E
:2092E00000000000000000000000000000000000000000000000000000000000000000006E
:2093000000000000000000000000000000000000000000000000000000000000000000004D
:2093200000000000000000000000000000000000000000000000000000000000000000002D
:20934000000000000000000000006C4C313131313131313131313131313131313131366B42
:20936000860D0000000000000000000000000000000000000000000000000000000000005A
:20938000000000000000000000000000000000000000000000000000000000006A4E3331B1
:2093A00031313131313131313131313131313131313131338B5700000000000000000000F5
:2093C00000000000000000000000000000000000000000000000000000000000000000008D
:2093E00000000000000000000000000000000000000000000000000000000000000000006D
:2094000000000000000000000000000000000000000000000000000000000000000000004C
:2094200000000000000000000000000000000000000000000000000000000000000000002C
:209440000000000000000000000050683431313131313131313131313131313131366B9BD4
:209460003800000000000000000000000000000000000000000000000000000000000000B4
:20948000000000000000000000000000000000000000000000000000000000596336313178
:2094A000313131313131313131313131313131313131313F9C12000000000000000000001C
:2094C00000000000000000000000000000000000000000000000000000000000000000008C
:2094E00000000000000000000000000000000000000000000000000000000000000000006C
:2095000000000000000000000000000000000000000000000000000000000000000000004B
:2095200000000000000000000000000000000000000000000000000000000000000000002B
:2095400000000000000000000000127544313131313131313131313131313131366BA043DD
:209560000000000000000000000000000000000000000000000000000000000000000000EB
:2095800000000000000000000000000000000000000000000000000000004B6F3A31313144
:2095A000313131313131313131313131313131313131336B74000000000000000000000027
:2095C00000000000000000000000000000000000000000000000000000000000000000008B
:2095E00000000000000000000000000000000000000000000000000000000000000000006B
:2096000000000000000000000000000000000000000000000000000000000000000000004A
:2096200000000000000000000000000000000000000000000000000000000000000000002A
:209640000000000000000000000000675C3331313131313131313131313131366DA045000F
:209660000000000000000000000000000000000000000000000000000000000000000000EA
:2096800000000000000000000000000000000000000000000000000000457B403131313106
:2096A000313131313131313131313131313131313131389629000000000000000000000041
:2096C00000000000000000000000000000000000000000000000000000000000000000008A
:2096E00000000000000000000000000000000000000000000000000000000000000000006A
:20970000000000000000000000000000000000000000000000000000000000000000000049
:20972000000000000000000000000000000000000000000000000000000000000000000029
:209740000000000000000000000000287341313131313131313131313131366DA045000059
:209760000000000000000000000000000000000000000000000000000000000000000000E9
:209780000000000000000000000000000000000000000000000000004481483231313131C6
:2097A0003131313131313131313131313131313131325E790000000000000000000000005F
:2097C000000000000000000000000000000000000000000000000000000000000000000089
:2097E000000000000000000000000000000000000000000000000000000000000000000069
:20980000000000000000000000000000000000000000000000000000000000000000000048
:20982000000000000000000000000000000000000000000000000000000000000000000028
:2098400000000000000000000000000069593331313131313131313131376DA1450000009F
:209860000000000000000000000000000000000000000000000000000000000000000000E8
:20988000000000000000000000000000000000000000000000000045834D3331313131318B
:2098A0003131313131313131313131313131313131378F2C00000000000000000000000075
:2098C000000000000000000000000000000000000000000000000000000000000000000088
:2098E000000000000000000000000000000000000000000000000000000000000000000068
:20990000000000000000000000000000000000000000000000000000000000000000000047
:20992000000000000000000000000000000000000000000000000000000000000000000027
:209940000000000000000000000000002B7441313131313131313131376CA14500000000E5
:209960000000000000000000000000000000000000000000000000000000000000000000E7
:20998000000000000000000000000000000000000000000000004B814C3331313131313156
:2099A00031313131313131313131313131313131325E78000000000000000000000000008F
:2099C000000000000000000000000000000000000000000000000000000000000000000087
:2099E000000000000000000000000000000000000000000000000000000000000000000067
:209A0000000000000000000000000000000000000000000000000000000000000000000046
:209A2000000000000000000000000000000000000000000000000000000000000000000026
:209A4000000000000000000000000000006C5E3331313131313131376CA145000000000029
:209A60000000000000000000000000000000000000000000000000000000000000000000E6
:209A80000000000000000000000000000000000000000000005A7F4832313131313131311C
:209AA000313131313131313131313131313131313A932C000000000000000000000000009D
:209AC000000000000000000000000000000000000000000000000000000000000000000086
:209AE000000000000000000000000000000000000000000000000000000000000000000066
:209B0000000000000000000000000000000000000000000000000000000000000000000045
:209B2000000000000000000000000000000000000000000000000000000000000000000025
:209B400000000000000000000000000000287C45313131313131376EA2450000000000006A
:209B60000000000000000000000000000000000000000000000000000000000000000000E5
:209B8000000000000000000000000000000000000000001E72783F323131313131313131C4
:209BA000313131313131313131313131313131336E7A0000000000000000000000000000AB
:209BC000000000000000000000000000000000000000000000000000000000000000000085
:209BE000000000000000000000000000000000000000000000000000000000000000000065
:209C0000000000000000000000000000000000000000000000000000000000000000000044
:209C2000000000000000000000000000000000000000000000000000000000000000000024
:209C40000000000000000000000000000000686C3831313131376EA24500000000000000A8
:209C60000000000000000000000000000000000000000000000000000000000000000000E4
:209C8000000000000000000000000000000000000000508168373231313131313131313169
:209CA000313131313131313131313131313131459F290000000000000000000000000000B8
:209CC000000000000000000000000000000000000000000000000000000000000000000084
:209CE000000000000000000000000000000000000000000000000000000000000000000064
:209D0000000000000000000000000000000000000000000000000000000000000000000043
:209D2000000000000000000000000000000000000000000000000000000000000000000023
:209D4000000000000000000000000000000012804F3231313770A245000000000000000000
:209D60000000000000000000000000000005100000000000000000000000000000000000CE
:209D8000000000000000000000000000000000003376814D343131313131313131313131FD
:209DA0003131313131313131313131313131358D73000000000000000000000000000000C0
:209DC000000000000000000000000000000000000000000000000000000000000000000083
:209DE000000000000000000000000000000000000000000000000000000000000000000063
:209E0000000000000000000000000000000000000000000000000000000000000000000042
:209E2000000000000000000000000000000000000000000000000000000000000000000022
:209E400000000000000000000000000000000047773F3137709E440000000000000000004B
:209E600000000000000000000000001D4345657F6A280000000000000000000000000000C7
:209E800000000000000000000000000000002D6E846338323131313131313131313131318A
:209EA00031313131313131313131313131325B9F13000000000000000000000000000000E6
