:020000040000FA
:20000000CECECECECECECECECECECECECECE0000BDBDBDBDBDBDBDBDBDBDBDBDBDBD000046
:20002000B4B4B4B4B4B4B4B4B4B4B4B4B4B40000A5A5A5A5A5A5A5A5A5A5A5A5A5A50000E2
:20004000919191919191919191919191919100008A8A8A8A8A8A8A8A8A8A8A8A8A8A000026
:20006000737373737373737373737373737300006767676767676767676767676767000094
:20008000595959595959595959595959595900004A4A4A4A4A4A4A4A4A4A4A4A4A4A000076
:2000A000434343434343434343434343434300002F2F2F2F2F2F2F2F2F2F2F2F2F2F000004
:2000C000202020202020202020202020202000001212121212121212121212121212000064
:2000E000000000000000000000000000000000000000000000000000000000000000000000
:00000001FF
